{
  "contractName": "Ballot",
  "abi": [
    {
      "inputs": [
        {
          "name": "_numProposals",
          "type": "uint8"
        }
      ],
      "payable": false,
      "stateMutability": "nonpayable",
      "type": "constructor"
    },
    {
      "anonymous": false,
      "inputs": [
        {
          "indexed": true,
          "name": "_from",
          "type": "address"
        },
        {
          "indexed": false,
          "name": "vote",
          "type": "uint8"
        }
      ],
      "name": "AlreadyVoted",
      "type": "event"
    },
    {
      "anonymous": false,
      "inputs": [
        {
          "indexed": true,
          "name": "_from",
          "type": "address"
        },
        {
          "indexed": false,
          "name": "proposal",
          "type": "uint8"
        }
      ],
      "name": "IncorrectProposal",
      "type": "event"
    },
    {
      "anonymous": false,
      "inputs": [
        {
          "indexed": true,
          "name": "_from",
          "type": "address"
        },
        {
          "indexed": false,
          "name": "proposal",
          "type": "uint8"
        }
      ],
      "name": "Voted",
      "type": "event"
    },
    {
      "constant": false,
      "inputs": [
        {
          "name": "voter",
          "type": "address"
        }
      ],
      "name": "giveRightToVote",
      "outputs": [],
      "payable": false,
      "stateMutability": "nonpayable",
      "type": "function"
    },
    {
      "constant": false,
      "inputs": [
        {
          "name": "to",
          "type": "address"
        }
      ],
      "name": "delegate",
      "outputs": [],
      "payable": false,
      "stateMutability": "nonpayable",
      "type": "function"
    },
    {
      "constant": false,
      "inputs": [
        {
          "name": "proposal",
          "type": "uint8"
        }
      ],
      "name": "vote",
      "outputs": [],
      "payable": false,
      "stateMutability": "nonpayable",
      "type": "function"
    },
    {
      "constant": false,
      "inputs": [
        {
          "name": "proposal",
          "type": "uint8"
        }
      ],
      "name": "justVote",
      "outputs": [],
      "payable": false,
      "stateMutability": "nonpayable",
      "type": "function"
    },
    {
      "constant": true,
      "inputs": [],
      "name": "winningProposal",
      "outputs": [
        {
          "name": "_winningProposal",
          "type": "uint8"
        }
      ],
      "payable": false,
      "stateMutability": "view",
      "type": "function"
    },
    {
      "constant": true,
      "inputs": [
        {
          "name": "proposal",
          "type": "uint8"
        }
      ],
      "name": "getVoteCount",
      "outputs": [
        {
          "name": "_votecount",
          "type": "uint256"
        }
      ],
      "payable": false,
      "stateMutability": "view",
      "type": "function"
    }
  ],
  "bytecode": "0x608060405234801561001057600080fd5b50604051602080610adb83398101806040528101908080519060200190929190505050336000806101000a81548173ffffffffffffffffffffffffffffffffffffffff021916908373ffffffffffffffffffffffffffffffffffffffff16021790555060018060008060009054906101000a900473ffffffffffffffffffffffffffffffffffffffff1673ffffffffffffffffffffffffffffffffffffffff1673ffffffffffffffffffffffffffffffffffffffff168152602001908152602001600020600001819055508060ff166002816100ec91906100f3565b5050610146565b81548183558181111561011a57818360005260206000209182019101610119919061011f565b5b505050565b61014391905b8082111561013f5760008082016000905550600101610125565b5090565b90565b610986806101556000396000f300608060405260043610610078576000357c0100000000000000000000000000000000000000000000000000000000900463ffffffff1680635c19a95c1461007d578063609ff1bd146100c05780639c6147d0146100f15780639e7b8d6114610135578063b3f98adc14610178578063f150db6c146101a8575b600080fd5b34801561008957600080fd5b506100be600480360381019080803573ffffffffffffffffffffffffffffffffffffffff1690602001909291905050506101d8565b005b3480156100cc57600080fd5b506100d561052a565b604051808260ff1660ff16815260200191505060405180910390f35b3480156100fd57600080fd5b5061011f600480360381019080803560ff1690602001909291905050506105a6565b6040518082815260200191505060405180910390f35b34801561014157600080fd5b50610176600480360381019080803573ffffffffffffffffffffffffffffffffffffffff1690602001909291905050506105cf565b005b34801561018457600080fd5b506101a6600480360381019080803560ff1690602001909291905050506106cc565b005b3480156101b457600080fd5b506101d6600480360381019080803560ff16906020019092919050505061086a565b005b600080600160003373ffffffffffffffffffffffffffffffffffffffff1673ffffffffffffffffffffffffffffffffffffffff16815260200190815260200160002091508160010160009054906101000a900460ff161561023857610525565b5b600073ffffffffffffffffffffffffffffffffffffffff16600160008573ffffffffffffffffffffffffffffffffffffffff1673ffffffffffffffffffffffffffffffffffffffff16815260200190815260200160002060010160029054906101000a900473ffffffffffffffffffffffffffffffffffffffff1673ffffffffffffffffffffffffffffffffffffffff161415801561036657503373ffffffffffffffffffffffffffffffffffffffff16600160008573ffffffffffffffffffffffffffffffffffffffff1673ffffffffffffffffffffffffffffffffffffffff16815260200190815260200160002060010160029054906101000a900473ffffffffffffffffffffffffffffffffffffffff1673ffffffffffffffffffffffffffffffffffffffff1614155b156103d557600160008473ffffffffffffffffffffffffffffffffffffffff1673ffffffffffffffffffffffffffffffffffffffff16815260200190815260200160002060010160029054906101000a900473ffffffffffffffffffffffffffffffffffffffff169250610239565b3373ffffffffffffffffffffffffffffffffffffffff168373ffffffffffffffffffffffffffffffffffffffff16141561040e57610525565b60018260010160006101000a81548160ff021916908315150217905550828260010160026101000a81548173ffffffffffffffffffffffffffffffffffffffff021916908373ffffffffffffffffffffffffffffffffffffffff160217905550600160008473ffffffffffffffffffffffffffffffffffffffff1673ffffffffffffffffffffffffffffffffffffffff16815260200190815260200160002090508060010160009054906101000a900460ff161561050d57816000015460028260010160019054906101000a900460ff1660ff168154811015156104ee57fe5b9060005260206000200160000160008282540192505081905550610524565b816000015481600001600082825401925050819055505b5b505050565b6000806000809150600090505b6002805490508160ff1610156105a1578160028260ff1681548110151561055a57fe5b906000526020600020016000015411156105945760028160ff1681548110151561058057fe5b906000526020600020016000015491508092505b8080600101915050610537565b505090565b600060028260ff168154811015156105ba57fe5b90600052602060002001600001549050919050565b6000809054906101000a900473ffffffffffffffffffffffffffffffffffffffff1673ffffffffffffffffffffffffffffffffffffffff163373ffffffffffffffffffffffffffffffffffffffff161415806106775750600160008273ffffffffffffffffffffffffffffffffffffffff1673ffffffffffffffffffffffffffffffffffffffff16815260200190815260200160002060010160009054906101000a900460ff165b15610681576106c9565b60018060008373ffffffffffffffffffffffffffffffffffffffff1673ffffffffffffffffffffffffffffffffffffffff168152602001908152602001600020600001819055505b50565b6000600160003373ffffffffffffffffffffffffffffffffffffffff1673ffffffffffffffffffffffffffffffffffffffff16815260200190815260200160002090508060010160009054906101000a900460ff1615610790573373ffffffffffffffffffffffffffffffffffffffff167f55e66f5f700fed56de2114c8216ea67cd33140584b5093c8075a8c7c3087d9578260010160019054906101000a900460ff16604051808260ff1660ff16815260200191505060405180910390a2610866565b6002805490508260ff161015156107fa573373ffffffffffffffffffffffffffffffffffffffff167f27fca4de525ec89f64c5c4bdfee296ff44dad1ac7a3b14fb46d9058ca51fd5c383604051808260ff1660ff16815260200191505060405180910390a2610866565b60018160010160006101000a81548160ff021916908315150217905550818160010160016101000a81548160ff021916908360ff160217905550806000015460028360ff1681548110151561084b57fe5b90600052602060002001600001600082825401925050819055505b5050565b6002805490508160ff161015156108d4573373ffffffffffffffffffffffffffffffffffffffff167f27fca4de525ec89f64c5c4bdfee296ff44dad1ac7a3b14fb46d9058ca51fd5c382604051808260ff1660ff16815260200191505060405180910390a2610957565b600160028260ff168154811015156108e857fe5b90600052602060002001600001600082825401925050819055503373ffffffffffffffffffffffffffffffffffffffff167f14075e33dffdc00c1fcaf75d0f86d667170be57fb566b12b41b499e5fa53b12582604051808260ff1660ff16815260200191505060405180910390a25b505600a165627a7a72305820fce45bc606fe7c2b097e6e49a76e720c5a526340e2ba634ab05ea934216d48500029",
  "source": "pragma solidity ^0.4.18;\ncontract Ballot {\n    \n    event AlreadyVoted(\n        address indexed _from,\n        uint8 vote\n    );\n    event IncorrectProposal(\n        address indexed _from,\n        uint8 proposal\n    );\n\n    event Voted(\n        address indexed _from,\n        uint8 proposal\n    );\n\n    struct Voter {\n        uint weight;\n        bool voted;\n        uint8 vote;\n        address delegate;\n    }\n    struct Proposal {\n        uint voteCount;\n    }\n\n    address chairperson;\n    mapping(address => Voter) voters;\n    Proposal[] proposals;\n\n    /// Create a new ballot with $(_numProposals) different proposals.\n    function Ballot(uint8 _numProposals) public {\n        chairperson = msg.sender;\n        voters[chairperson].weight = 1;\n        proposals.length = _numProposals;\n    }\n\n    /// Give $(voter) the right to vote on this ballot.\n    /// May only be called by $(chairperson).\n    function giveRightToVote(address voter) public {\n        if (msg.sender != chairperson || voters[voter].voted) { return;}\n        voters[voter].weight = 1;\n    }\n\n    /// Delegate your vote to the voter $(to).\n    function delegate(address to) public {\n        Voter storage sender = voters[msg.sender]; // assigns reference\n        if (sender.voted) { return;}\n        while (voters[to].delegate != address(0) && voters[to].delegate != msg.sender) {\n            to = voters[to].delegate;\n            }\n        if (to == msg.sender) { return;}\n        sender.voted = true;\n        sender.delegate = to;\n        Voter storage delegateTo = voters[to];\n        if (delegateTo.voted)\n            proposals[delegateTo.vote].voteCount += sender.weight;\n        else\n            delegateTo.weight += sender.weight;\n    }\n\n    /// Give a single vote to proposal $(proposal).\n    function vote(uint8 proposal) public {\n        Voter storage sender = voters[msg.sender];\n        if (sender.voted) {\n            AlreadyVoted(msg.sender, sender.vote);\n            return;\n        }\n        if (proposal >= proposals.length) {\n            IncorrectProposal(msg.sender, proposal);\n            return;\n        }\n        sender.voted = true;\n        sender.vote = proposal;\n        proposals[proposal].voteCount += sender.weight;\n    }\n    \n    /// Give a single vote to proposal $(proposal).\n    function justVote(uint8 proposal) public {\n        if (proposal >= proposals.length) {\n            IncorrectProposal(msg.sender, proposal);\n            return;\n        }\n        proposals[proposal].voteCount += 1;\n        Voted(msg.sender,proposal);\n    }\n\n    function winningProposal() public constant returns (uint8 _winningProposal) {\n        uint256 winningVoteCount = 0;\n        for (uint8 proposal = 0; proposal < proposals.length; proposal++) {\n            if (proposals[proposal].voteCount > winningVoteCount) {\n                winningVoteCount = proposals[proposal].voteCount;\n                _winningProposal = proposal;\n            }\n        }\n    }\n\n    function getVoteCount(uint8 proposal) public view returns (uint256 _votecount) {\n        return proposals[proposal].voteCount;\n    }\n\n\n}",
  "sourcePath": "/Users/kevinleyssens/Documents/Projecten/ethereum-nodejs-demo/src/truffle/contracts/Ballot.sol",
  "compiler": {
    "name": "solc",
    "version": "0.4.24+commit.e67f0147.Emscripten.clang"
  },
  "schemaVersion": "2.0.1",
  "updatedAt": "2018-08-10T13:22:27.524Z"
}