{
  "contractName": "Ballot",
  "abi": [
    {
      "constant": false,
      "inputs": [
        {
          "name": "to",
          "type": "address"
        }
      ],
      "name": "delegate",
      "outputs": [],
      "payable": false,
      "stateMutability": "nonpayable",
      "type": "function"
    },
    {
      "constant": true,
      "inputs": [],
      "name": "winningProposal",
      "outputs": [
        {
          "name": "_winningProposal",
          "type": "uint8"
        }
      ],
      "payable": false,
      "stateMutability": "view",
      "type": "function"
    },
    {
      "constant": true,
      "inputs": [
        {
          "name": "proposal",
          "type": "uint8"
        }
      ],
      "name": "getVoteCount",
      "outputs": [
        {
          "name": "_votecount",
          "type": "uint256"
        }
      ],
      "payable": false,
      "stateMutability": "view",
      "type": "function"
    },
    {
      "constant": false,
      "inputs": [
        {
          "name": "voter",
          "type": "address"
        }
      ],
      "name": "giveRightToVote",
      "outputs": [],
      "payable": false,
      "stateMutability": "nonpayable",
      "type": "function"
    },
    {
      "constant": false,
      "inputs": [
        {
          "name": "proposal",
          "type": "uint8"
        }
      ],
      "name": "vote",
      "outputs": [],
      "payable": false,
      "stateMutability": "nonpayable",
      "type": "function"
    },
    {
      "constant": false,
      "inputs": [
        {
          "name": "proposal",
          "type": "uint8"
        }
      ],
      "name": "justVote",
      "outputs": [],
      "payable": false,
      "stateMutability": "nonpayable",
      "type": "function"
    },
    {
      "inputs": [
        {
          "name": "_numProposals",
          "type": "uint8"
        }
      ],
      "payable": false,
      "stateMutability": "nonpayable",
      "type": "constructor"
    },
    {
      "anonymous": false,
      "inputs": [
        {
          "indexed": true,
          "name": "_from",
          "type": "address"
        },
        {
          "indexed": false,
          "name": "vote",
          "type": "uint8"
        }
      ],
      "name": "AlreadyVoted",
      "type": "event"
    },
    {
      "anonymous": false,
      "inputs": [
        {
          "indexed": true,
          "name": "_from",
          "type": "address"
        },
        {
          "indexed": false,
          "name": "proposal",
          "type": "uint8"
        }
      ],
      "name": "IncorrectProposal",
      "type": "event"
    },
    {
      "anonymous": false,
      "inputs": [
        {
          "indexed": true,
          "name": "_from",
          "type": "address"
        },
        {
          "indexed": false,
          "name": "proposal",
          "type": "uint8"
        }
      ],
      "name": "Voted",
      "type": "event"
    }
  ],
  "bytecode": "0x6060604052341561000f57600080fd5b604051602080610aa583398101604052808051906020019091905050336000806101000a81548173ffffffffffffffffffffffffffffffffffffffff021916908373ffffffffffffffffffffffffffffffffffffffff16021790555060018060008060009054906101000a900473ffffffffffffffffffffffffffffffffffffffff1673ffffffffffffffffffffffffffffffffffffffff1673ffffffffffffffffffffffffffffffffffffffff168152602001908152602001600020600001819055508060ff166002816100e491906100eb565b505061013e565b815481835581811511610112578183600052602060002091820191016101119190610117565b5b505050565b61013b91905b80821115610137576000808201600090555060010161011d565b5090565b90565b6109588061014d6000396000f300606060405260043610610078576000357c0100000000000000000000000000000000000000000000000000000000900463ffffffff1680635c19a95c1461007d578063609ff1bd146100b65780639c6147d0146100e55780639e7b8d611461011f578063b3f98adc14610158578063f150db6c1461017e575b600080fd5b341561008857600080fd5b6100b4600480803573ffffffffffffffffffffffffffffffffffffffff169060200190919050506101a4565b005b34156100c157600080fd5b6100c96104f7565b604051808260ff1660ff16815260200191505060405180910390f35b34156100f057600080fd5b610109600480803560ff16906020019091905050610575565b6040518082815260200191505060405180910390f35b341561012a57600080fd5b610156600480803573ffffffffffffffffffffffffffffffffffffffff1690602001909190505061059f565b005b341561016357600080fd5b61017c600480803560ff1690602001909190505061069c565b005b341561018957600080fd5b6101a2600480803560ff1690602001909190505061083b565b005b600080600160003373ffffffffffffffffffffffffffffffffffffffff1673ffffffffffffffffffffffffffffffffffffffff16815260200190815260200160002091508160010160009054906101000a900460ff1615610204576104f2565b5b600073ffffffffffffffffffffffffffffffffffffffff16600160008573ffffffffffffffffffffffffffffffffffffffff1673ffffffffffffffffffffffffffffffffffffffff16815260200190815260200160002060010160029054906101000a900473ffffffffffffffffffffffffffffffffffffffff1673ffffffffffffffffffffffffffffffffffffffff161415801561033257503373ffffffffffffffffffffffffffffffffffffffff16600160008573ffffffffffffffffffffffffffffffffffffffff1673ffffffffffffffffffffffffffffffffffffffff16815260200190815260200160002060010160029054906101000a900473ffffffffffffffffffffffffffffffffffffffff1673ffffffffffffffffffffffffffffffffffffffff1614155b156103a157600160008473ffffffffffffffffffffffffffffffffffffffff1673ffffffffffffffffffffffffffffffffffffffff16815260200190815260200160002060010160029054906101000a900473ffffffffffffffffffffffffffffffffffffffff169250610205565b3373ffffffffffffffffffffffffffffffffffffffff168373ffffffffffffffffffffffffffffffffffffffff1614156103da576104f2565b60018260010160006101000a81548160ff021916908315150217905550828260010160026101000a81548173ffffffffffffffffffffffffffffffffffffffff021916908373ffffffffffffffffffffffffffffffffffffffff160217905550600160008473ffffffffffffffffffffffffffffffffffffffff1673ffffffffffffffffffffffffffffffffffffffff16815260200190815260200160002090508060010160009054906101000a900460ff16156104da57816000015460028260010160019054906101000a900460ff1660ff168154811015156104ba57fe5b9060005260206000209001600001600082825401925050819055506104f1565b816000015481600001600082825401925050819055505b5b505050565b6000806000809150600090505b6002805490508160ff161015610570578160028260ff1681548110151561052757fe5b90600052602060002090016000015411156105635760028160ff1681548110151561054e57fe5b90600052602060002090016000015491508092505b8080600101915050610504565b505090565b600060028260ff1681548110151561058957fe5b9060005260206000209001600001549050919050565b6000809054906101000a900473ffffffffffffffffffffffffffffffffffffffff1673ffffffffffffffffffffffffffffffffffffffff163373ffffffffffffffffffffffffffffffffffffffff161415806106475750600160008273ffffffffffffffffffffffffffffffffffffffff1673ffffffffffffffffffffffffffffffffffffffff16815260200190815260200160002060010160009054906101000a900460ff165b1561065157610699565b60018060008373ffffffffffffffffffffffffffffffffffffffff1673ffffffffffffffffffffffffffffffffffffffff168152602001908152602001600020600001819055505b50565b6000600160003373ffffffffffffffffffffffffffffffffffffffff1673ffffffffffffffffffffffffffffffffffffffff16815260200190815260200160002090508060010160009054906101000a900460ff1615610760573373ffffffffffffffffffffffffffffffffffffffff167f55e66f5f700fed56de2114c8216ea67cd33140584b5093c8075a8c7c3087d9578260010160019054906101000a900460ff16604051808260ff1660ff16815260200191505060405180910390a2610837565b6002805490508260ff161015156107ca573373ffffffffffffffffffffffffffffffffffffffff167f27fca4de525ec89f64c5c4bdfee296ff44dad1ac7a3b14fb46d9058ca51fd5c383604051808260ff1660ff16815260200191505060405180910390a2610837565b60018160010160006101000a81548160ff021916908315150217905550818160010160016101000a81548160ff021916908360ff160217905550806000015460028360ff1681548110151561081b57fe5b9060005260206000209001600001600082825401925050819055505b5050565b6002805490508160ff161015156108a5573373ffffffffffffffffffffffffffffffffffffffff167f27fca4de525ec89f64c5c4bdfee296ff44dad1ac7a3b14fb46d9058ca51fd5c382604051808260ff1660ff16815260200191505060405180910390a2610929565b600160028260ff168154811015156108b957fe5b9060005260206000209001600001600082825401925050819055503373ffffffffffffffffffffffffffffffffffffffff167f14075e33dffdc00c1fcaf75d0f86d667170be57fb566b12b41b499e5fa53b12582604051808260ff1660ff16815260200191505060405180910390a25b505600a165627a7a72305820fda7792df02d63605c58f8b1534565e6030d43b7395895a8ebf2d661712022be0029",
  "source": "pragma solidity ^0.4.18;\ncontract Ballot {\n    \n    event AlreadyVoted(\n        address indexed _from,\n        uint8 vote\n    );\n    event IncorrectProposal(\n        address indexed _from,\n        uint8 proposal\n    );\n\n    event Voted(\n        address indexed _from,\n        uint8 proposal\n    );\n\n    struct Voter {\n        uint weight;\n        bool voted;\n        uint8 vote;\n        address delegate;\n    }\n    struct Proposal {\n        uint voteCount;\n    }\n\n    address chairperson;\n    mapping(address => Voter) voters;\n    Proposal[] proposals;\n\n    /// Create a new ballot with $(_numProposals) different proposals.\n    function Ballot(uint8 _numProposals) public {\n        chairperson = msg.sender;\n        voters[chairperson].weight = 1;\n        proposals.length = _numProposals;\n    }\n\n    /// Give $(voter) the right to vote on this ballot.\n    /// May only be called by $(chairperson).\n    function giveRightToVote(address voter) public {\n        if (msg.sender != chairperson || voters[voter].voted) { return;}\n        voters[voter].weight = 1;\n    }\n\n    /// Delegate your vote to the voter $(to).\n    function delegate(address to) public {\n        Voter storage sender = voters[msg.sender]; // assigns reference\n        if (sender.voted) { return;}\n        while (voters[to].delegate != address(0) && voters[to].delegate != msg.sender) {\n            to = voters[to].delegate;\n            }\n        if (to == msg.sender) { return;}\n        sender.voted = true;\n        sender.delegate = to;\n        Voter storage delegateTo = voters[to];\n        if (delegateTo.voted)\n            proposals[delegateTo.vote].voteCount += sender.weight;\n        else\n            delegateTo.weight += sender.weight;\n    }\n\n    /// Give a single vote to proposal $(proposal).\n    function vote(uint8 proposal) public {\n        Voter storage sender = voters[msg.sender];\n        if (sender.voted) {\n            AlreadyVoted(msg.sender, sender.vote);\n            return;\n        }\n        if (proposal >= proposals.length) {\n            IncorrectProposal(msg.sender, proposal);\n            return;\n        }\n        sender.voted = true;\n        sender.vote = proposal;\n        proposals[proposal].voteCount += sender.weight;\n    }\n    \n    /// Give a single vote to proposal $(proposal).\n    function justVote(uint8 proposal) public {\n        if (proposal >= proposals.length) {\n            IncorrectProposal(msg.sender, proposal);\n            return;\n        }\n        proposals[proposal].voteCount += 1;\n        Voted(msg.sender,proposal);\n    }\n\n    function winningProposal() public constant returns (uint8 _winningProposal) {\n        uint256 winningVoteCount = 0;\n        for (uint8 proposal = 0; proposal < proposals.length; proposal++) {\n            if (proposals[proposal].voteCount > winningVoteCount) {\n                winningVoteCount = proposals[proposal].voteCount;\n                _winningProposal = proposal;\n            }\n        }\n    }\n\n    function getVoteCount(uint8 proposal) public view returns (uint256 _votecount) {\n        return proposals[proposal].voteCount;\n    }\n\n\n}",
  "sourcePath": "/Users/kevinleyssens/Documents/Projecten/ethereum-nodejs-demo/src/truffle/contracts/Ballot.sol",
  "compiler": {
    "name": "solc",
    "version": "0.4.18+commit.9cf6e910.Emscripten.clang"
  },
  "schemaVersion": "1.0.1",
  "updatedAt": "2018-02-14T12:17:03.458Z"
}