{
  "contractName": "SimpleBallot",
  "abi": [
    {
      "constant": true,
      "inputs": [],
      "name": "winningProposal",
      "outputs": [
        {
          "name": "_winningProposal",
          "type": "uint8"
        }
      ],
      "payable": false,
      "stateMutability": "view",
      "type": "function"
    },
    {
      "constant": true,
      "inputs": [
        {
          "name": "proposal",
          "type": "uint8"
        }
      ],
      "name": "getVoteCount",
      "outputs": [
        {
          "name": "_votecount",
          "type": "uint256"
        }
      ],
      "payable": false,
      "stateMutability": "view",
      "type": "function"
    },
    {
      "constant": false,
      "inputs": [
        {
          "name": "proposal",
          "type": "uint8"
        }
      ],
      "name": "vote",
      "outputs": [],
      "payable": false,
      "stateMutability": "nonpayable",
      "type": "function"
    },
    {
      "constant": false,
      "inputs": [
        {
          "name": "_proposal",
          "type": "uint8"
        }
      ],
      "name": "justVote",
      "outputs": [],
      "payable": false,
      "stateMutability": "nonpayable",
      "type": "function"
    },
    {
      "inputs": [
        {
          "name": "_numProposals",
          "type": "uint8"
        }
      ],
      "payable": false,
      "stateMutability": "nonpayable",
      "type": "constructor"
    },
    {
      "anonymous": false,
      "inputs": [
        {
          "indexed": false,
          "name": "_from",
          "type": "address"
        },
        {
          "indexed": false,
          "name": "proposal",
          "type": "uint8"
        }
      ],
      "name": "IncorrectProposal",
      "type": "event"
    },
    {
      "anonymous": false,
      "inputs": [
        {
          "indexed": false,
          "name": "_from",
          "type": "address"
        },
        {
          "indexed": false,
          "name": "proposal",
          "type": "uint8"
        }
      ],
      "name": "Voted",
      "type": "event"
    },
    {
      "anonymous": false,
      "inputs": [
        {
          "indexed": false,
          "name": "_from",
          "type": "address"
        },
        {
          "indexed": false,
          "name": "vote",
          "type": "uint8"
        }
      ],
      "name": "AlreadyVoted",
      "type": "event"
    }
  ],
  "bytecode": "0x6060604052341561000f57600080fd5b60405160208061062e83398101604052808051906020019091905050336000806101000a81548173ffffffffffffffffffffffffffffffffffffffff021916908373ffffffffffffffffffffffffffffffffffffffff1602179055508060ff1660028161007c9190610083565b50506100d6565b8154818355818115116100aa578183600052602060002091820191016100a991906100af565b5b505050565b6100d391905b808211156100cf57600080820160009055506001016100b5565b5090565b90565b610549806100e56000396000f300606060405260043610610062576000357c0100000000000000000000000000000000000000000000000000000000900463ffffffff168063609ff1bd146100675780639c6147d014610096578063b3f98adc146100d0578063f150db6c146100f6575b600080fd5b341561007257600080fd5b61007a61011c565b604051808260ff1660ff16815260200191505060405180910390f35b34156100a157600080fd5b6100ba600480803560ff1690602001909190505061019a565b6040518082815260200191505060405180910390f35b34156100db57600080fd5b6100f4600480803560ff169060200190919050506101c4565b005b341561010157600080fd5b61011a600480803560ff16906020019091905050610399565b005b6000806000809150600090505b6002805490508160ff161015610195578160028260ff1681548110151561014c57fe5b90600052602060002090016000015411156101885760028160ff1681548110151561017357fe5b90600052602060002090016000015491508092505b8080600101915050610129565b505090565b600060028260ff168154811015156101ae57fe5b9060005260206000209001600001549050919050565b6000600160003373ffffffffffffffffffffffffffffffffffffffff1673ffffffffffffffffffffffffffffffffffffffff16815260200190815260200160002090508060000160009054906101000a900460ff16156102a5577f55e66f5f700fed56de2114c8216ea67cd33140584b5093c8075a8c7c3087d957338260000160019054906101000a900460ff16604051808373ffffffffffffffffffffffffffffffffffffffff1673ffffffffffffffffffffffffffffffffffffffff1681526020018260ff1660ff1681526020019250505060405180910390a1600080fd5b6002805490508260ff1610151561032c577f27fca4de525ec89f64c5c4bdfee296ff44dad1ac7a3b14fb46d9058ca51fd5c33383604051808373ffffffffffffffffffffffffffffffffffffffff1673ffffffffffffffffffffffffffffffffffffffff1681526020018260ff1660ff1681526020019250505060405180910390a1600080fd5b60018160000160006101000a81548160ff021916908315150217905550818160000160016101000a81548160ff021916908360ff160217905550600160028360ff1681548110151561037a57fe5b9060005260206000209001600001600082825401925050819055505050565b6002805490508160ff16101515610420577f27fca4de525ec89f64c5c4bdfee296ff44dad1ac7a3b14fb46d9058ca51fd5c33382604051808373ffffffffffffffffffffffffffffffffffffffff1673ffffffffffffffffffffffffffffffffffffffff1681526020018260ff1660ff1681526020019250505060405180910390a1600080fd5b600160028260ff1681548110151561043457fe5b90600052602060002090016000016000828254019250508190555060018060003373ffffffffffffffffffffffffffffffffffffffff1673ffffffffffffffffffffffffffffffffffffffff16815260200190815260200160002060000160006101000a81548160ff0219169083151502179055507f14075e33dffdc00c1fcaf75d0f86d667170be57fb566b12b41b499e5fa53b1253382604051808373ffffffffffffffffffffffffffffffffffffffff1673ffffffffffffffffffffffffffffffffffffffff1681526020018260ff1660ff1681526020019250505060405180910390a1505600a165627a7a7230582008f36d6e5d612e33c43f82cc249803426c0514786ef7cb5c8dd150e5f017c5fa0029",
  "source": "pragma solidity ^0.4.18;\ncontract SimpleBallot {\n\n    address chairperson;\n    mapping(address => Voter) voters;\n    Proposal[] proposals;\n\n    struct Proposal {\n        uint voteCount;\n    }\n\n    struct Voter {\n        bool voted;\n        uint8 vote;\n    }\n\n    modifier onlyChairperson() {\n        require(msg.sender == chairperson);\n        _;\n    }\n\n    event IncorrectProposal(\n        address _from,\n        uint8 proposal\n    );\n\n    event Voted(\n        address _from,\n        uint8 proposal\n    );\n\n    event AlreadyVoted(\n        address _from,\n        uint8 vote\n    );\n\n    /// Create a new ballot with $(_numProposals) different proposals.\n    function SimpleBallot(uint8 _numProposals) public {\n        chairperson = msg.sender;\n        proposals.length = _numProposals;\n    }\n    \n    /// Give a single vote to proposal $(proposal).\n    function justVote(uint8 _proposal) public {\n        if (_proposal >= proposals.length) {\n            IncorrectProposal(msg.sender, _proposal);\n            revert();\n        }\n        proposals[_proposal].voteCount += 1;\n        voters[msg.sender].voted = true;\n        Voted(msg.sender,_proposal);\n    }\n\n    function winningProposal() public constant returns (uint8 _winningProposal) {\n        uint256 winningVoteCount = 0;\n        for (uint8 proposal = 0; proposal < proposals.length; proposal++) {\n            if (proposals[proposal].voteCount > winningVoteCount) {\n                winningVoteCount = proposals[proposal].voteCount;\n                _winningProposal = proposal;\n            }\n        }\n    }\n\n    function getVoteCount(uint8 proposal) public view returns (uint256 _votecount) {\n        return proposals[proposal].voteCount;\n    }\n\n    /// Give a single vote to proposal $(proposal).\n    function vote(uint8 proposal) public {\n        Voter storage sender = voters[msg.sender];\n        if (sender.voted) {\n            AlreadyVoted(msg.sender, sender.vote);\n            revert();\n        }\n        if (proposal >= proposals.length) {\n            IncorrectProposal(msg.sender, proposal);\n            revert();\n        }\n        sender.voted = true;\n        sender.vote = proposal;\n        proposals[proposal].voteCount += 1;\n    }\n\n\n}",
  "sourcePath": "/Users/kevinleyssens/Documents/Projecten/ethereum-nodejs-demo/src/truffle/contracts/SimpleBallot.sol",
  "compiler": {
    "name": "solc",
    "version": "0.4.18+commit.9cf6e910.Emscripten.clang"
  },
  "schemaVersion": "1.0.1",
  "updatedAt": "2018-02-14T14:25:26.106Z"
}