{
  "contractName": "SimpleBallot",
  "abi": [
    {
      "inputs": [
        {
          "name": "_numProposals",
          "type": "uint8"
        }
      ],
      "payable": false,
      "stateMutability": "nonpayable",
      "type": "constructor"
    },
    {
      "anonymous": false,
      "inputs": [
        {
          "indexed": false,
          "name": "_from",
          "type": "address"
        },
        {
          "indexed": false,
          "name": "proposal",
          "type": "uint8"
        }
      ],
      "name": "IncorrectProposal",
      "type": "event"
    },
    {
      "anonymous": false,
      "inputs": [
        {
          "indexed": false,
          "name": "_from",
          "type": "address"
        },
        {
          "indexed": false,
          "name": "proposal",
          "type": "uint8"
        }
      ],
      "name": "Voted",
      "type": "event"
    },
    {
      "anonymous": false,
      "inputs": [
        {
          "indexed": false,
          "name": "_from",
          "type": "address"
        },
        {
          "indexed": false,
          "name": "vote",
          "type": "uint8"
        }
      ],
      "name": "AlreadyVoted",
      "type": "event"
    },
    {
      "constant": false,
      "inputs": [
        {
          "name": "_proposal",
          "type": "uint8"
        }
      ],
      "name": "justVote",
      "outputs": [],
      "payable": false,
      "stateMutability": "nonpayable",
      "type": "function"
    },
    {
      "constant": true,
      "inputs": [],
      "name": "winningProposal",
      "outputs": [
        {
          "name": "_winningProposal",
          "type": "uint8"
        }
      ],
      "payable": false,
      "stateMutability": "view",
      "type": "function"
    },
    {
      "constant": true,
      "inputs": [
        {
          "name": "proposal",
          "type": "uint8"
        }
      ],
      "name": "getVoteCount",
      "outputs": [
        {
          "name": "_votecount",
          "type": "uint256"
        }
      ],
      "payable": false,
      "stateMutability": "view",
      "type": "function"
    },
    {
      "constant": false,
      "inputs": [
        {
          "name": "proposal",
          "type": "uint8"
        }
      ],
      "name": "vote",
      "outputs": [],
      "payable": false,
      "stateMutability": "nonpayable",
      "type": "function"
    }
  ],
  "bytecode": "0x608060405234801561001057600080fd5b5060405160208061065183398101806040528101908080519060200190929190505050336000806101000a81548173ffffffffffffffffffffffffffffffffffffffff021916908373ffffffffffffffffffffffffffffffffffffffff1602179055508060ff16600281610084919061008b565b50506100de565b8154818355818111156100b2578183600052602060002091820191016100b191906100b7565b5b505050565b6100db91905b808211156100d757600080820160009055506001016100bd565b5090565b90565b610564806100ed6000396000f300608060405260043610610062576000357c0100000000000000000000000000000000000000000000000000000000900463ffffffff168063609ff1bd146100675780639c6147d014610098578063b3f98adc146100dc578063f150db6c1461010c575b600080fd5b34801561007357600080fd5b5061007c61013c565b604051808260ff1660ff16815260200191505060405180910390f35b3480156100a457600080fd5b506100c6600480360381019080803560ff1690602001909291905050506101b8565b6040518082815260200191505060405180910390f35b3480156100e857600080fd5b5061010a600480360381019080803560ff1690602001909291905050506101e1565b005b34801561011857600080fd5b5061013a600480360381019080803560ff1690602001909291905050506103b5565b005b6000806000809150600090505b6002805490508160ff1610156101b3578160028260ff1681548110151561016c57fe5b906000526020600020016000015411156101a65760028160ff1681548110151561019257fe5b906000526020600020016000015491508092505b8080600101915050610149565b505090565b600060028260ff168154811015156101cc57fe5b90600052602060002001600001549050919050565b6000600160003373ffffffffffffffffffffffffffffffffffffffff1673ffffffffffffffffffffffffffffffffffffffff16815260200190815260200160002090508060000160009054906101000a900460ff16156102c2577f55e66f5f700fed56de2114c8216ea67cd33140584b5093c8075a8c7c3087d957338260000160019054906101000a900460ff16604051808373ffffffffffffffffffffffffffffffffffffffff1673ffffffffffffffffffffffffffffffffffffffff1681526020018260ff1660ff1681526020019250505060405180910390a1600080fd5b6002805490508260ff16101515610349577f27fca4de525ec89f64c5c4bdfee296ff44dad1ac7a3b14fb46d9058ca51fd5c33383604051808373ffffffffffffffffffffffffffffffffffffffff1673ffffffffffffffffffffffffffffffffffffffff1681526020018260ff1660ff1681526020019250505060405180910390a1600080fd5b60018160000160006101000a81548160ff021916908315150217905550818160000160016101000a81548160ff021916908360ff160217905550600160028360ff1681548110151561039757fe5b90600052602060002001600001600082825401925050819055505050565b6002805490508160ff1610151561043c577f27fca4de525ec89f64c5c4bdfee296ff44dad1ac7a3b14fb46d9058ca51fd5c33382604051808373ffffffffffffffffffffffffffffffffffffffff1673ffffffffffffffffffffffffffffffffffffffff1681526020018260ff1660ff1681526020019250505060405180910390a1600080fd5b600160028260ff1681548110151561045057fe5b906000526020600020016000016000828254019250508190555060018060003373ffffffffffffffffffffffffffffffffffffffff1673ffffffffffffffffffffffffffffffffffffffff16815260200190815260200160002060000160006101000a81548160ff0219169083151502179055507f14075e33dffdc00c1fcaf75d0f86d667170be57fb566b12b41b499e5fa53b1253382604051808373ffffffffffffffffffffffffffffffffffffffff1673ffffffffffffffffffffffffffffffffffffffff1681526020018260ff1660ff1681526020019250505060405180910390a1505600a165627a7a723058207a8c1c7b97cdd508f3c4003e790098da43da853a362368a049c2e22edd614aaa0029",
  "source": "pragma solidity ^0.4.18;\ncontract SimpleBallot {\n\n    address chairperson;\n    mapping(address => Voter) voters;\n    Proposal[] proposals;\n\n    struct Proposal {\n        uint voteCount;\n    }\n\n    struct Voter {\n        bool voted;\n        uint8 vote;\n    }\n\n    modifier onlyChairperson() {\n        require(msg.sender == chairperson);\n        _;\n    }\n\n    event IncorrectProposal(\n        address _from,\n        uint8 proposal\n    );\n\n    event Voted(\n        address _from,\n        uint8 proposal\n    );\n\n    event AlreadyVoted(\n        address _from,\n        uint8 vote\n    );\n\n    /// Create a new ballot with $(_numProposals) different proposals.\n    function SimpleBallot(uint8 _numProposals) public {\n        chairperson = msg.sender;\n        proposals.length = _numProposals;\n    }\n    \n    /// Give a single vote to proposal $(proposal).\n    function justVote(uint8 _proposal) public {\n        if (_proposal >= proposals.length) {\n            IncorrectProposal(msg.sender, _proposal);\n            revert();\n        }\n        proposals[_proposal].voteCount += 1;\n        voters[msg.sender].voted = true;\n        Voted(msg.sender,_proposal);\n    }\n\n    function winningProposal() public constant returns (uint8 _winningProposal) {\n        uint256 winningVoteCount = 0;\n        for (uint8 proposal = 0; proposal < proposals.length; proposal++) {\n            if (proposals[proposal].voteCount > winningVoteCount) {\n                winningVoteCount = proposals[proposal].voteCount;\n                _winningProposal = proposal;\n            }\n        }\n    }\n\n    function getVoteCount(uint8 proposal) public view returns (uint256 _votecount) {\n        return proposals[proposal].voteCount;\n    }\n\n    /// Give a single vote to proposal $(proposal).\n    function vote(uint8 proposal) public {\n        Voter storage sender = voters[msg.sender];\n        if (sender.voted) {\n            AlreadyVoted(msg.sender, sender.vote);\n            revert();\n        }\n        if (proposal >= proposals.length) {\n            IncorrectProposal(msg.sender, proposal);\n            revert();\n        }\n        sender.voted = true;\n        sender.vote = proposal;\n        proposals[proposal].voteCount += 1;\n    }\n\n\n}",
  "sourcePath": "/Users/kevinleyssens/Documents/Projecten/ethereum-nodejs-demo/src/truffle/contracts/SimpleBallot.sol",
  "compiler": {
    "name": "solc",
    "version": "0.4.24+commit.e67f0147.Emscripten.clang"
  },
  "schemaVersion": "2.0.1",
  "updatedAt": "2018-08-10T13:22:27.822Z"
}